:100DBE0075985053890F438920AB07AA06E4F9F8BA
:100DCE007F807E70FDFC120C38EFF404F58D858D5E
:080DDE008BC2ABD2ACD28E2215
:03002300020AD6F8
:100AD600C0E0C0F0C083C082C0D075D000C000C0E6
:100AE60001C002C003C004C005C006C00730980A92
:100AF600C200C29885990A120868309902C299D034
:100B060007D006D005D004D003D002D001D000D043
:0A0B1600D0D082D083D0F0D0E032BE
:0D0F8D00D292D291D294D293D295D29622D4
:090FA700C292C291C294C29322CD
:090FB000D292D291D294D2932284
:090FB900D292C291D294C293229B
:090FC200C292D291C294D2932292
:090FCB00D292D291D294C2932279
:090FD400D292C291D294D2932270
:090FDD00C292D291D294C2932277
:090FE600D292C291C294D293226E
:100B6700E51124FC601124FE601224FE60132406A4
:100B77007012751104800D751106800875110880B3
:100B87000375110AE51224FC601024FE601024FE90
:100B970060102406700F7512042275120622751252
:060BA700082275120A226B
:100BAD00E51124FC601B24FE601224FE600924FE66
:100BBD007012751108800D7511068008751104806D
:100BCD0003751102E51224FC601824FE601024FE4A
:100BDD00600824FE700F7512082275120622751218
:060BED0004227512022231
:1009C30020B61920B716120B67120B67120FB91254
:1009D3000BAD120BADE4FD7F32FE803A30B61D2025
:1009E300B71A120FA7E4FD7F14FE120C7C120FCB73
:1009F300E4FD7F5E7E01120C7C120FA720B61D3032
:100A0300B71A120FA7E4FD7F14FE120C7C120FD449
:0D0A1300E4FD7F5E7E01120C7C120FA72215
:1008E300120FEF120FB9D3E50D942CE50C940140D0
:1008F3001220B50630B403120FCB30B50620B40373
:10090300120FD4C3E50D942CE50C9401504520B28D
:100913000630B303120FCB30B20620B303120FD449
:1009230020B20620B303120FE630B22730B32420DF
:10093300B50630B403120FCB30B50620B403120F43
:10094300D420B50620B403120FE630B50630B40345
:04095300120FE62277
:100B2000120FEFC3742C950D7401950C5023C3E57F
:100B30000D9420E50C94035018120FCBE4FD7F14A4
:100B4000FE120C7C120FB9E4FD7F0AFE120C7C80B1
:100B500003120FA730B20320B30920B2030200062C
:070B6000020E7A120FA7221A
:1000060020B20620B503120FB920B20630B503128E
:0C0016000FD430B20630B50312000022F7
:100E7A0020B30620B403120FB920B30630B403120C
:0C0E8A000FCB30B30630B403120000227E
:060ECD0004080000110002
:0E0F7F00D281758901C28CC2A9D288D2A82263
:100E3600E4F58CF58AD28C308107E58CD39440405A
:100E4600F6C28CAF8CEFFEAD8A7C00E42DFFEC3E43
:020E5600FE227A
:100E5800E4F58CF58AD28C208107E58CD394404048
:100E6800F6C28CAF8CEFFEAD8A7C00E42DFFEC3E21
:020E7800FE2258
:100BF300E4F52DF52CF52BF52A308115E52D24018F
:100C0300F52DE4352CF52CE4352BF52BE4352AF5BD
:100C13002A208109E4F52DF52CF52BF52AE47F6CC8
:100C23007E07FDFCAB2DAA2CA92BA82AD3120256B2
:040C330040C77F0136
:010C3700229A
:10086800E50A12026708B80708AE0808C30C089B17
:100878001108BD1508A41808A01C08D53108DA32DB
:1008880008CF4208A95208B35A08C95E08E07700A1
:100898000008E2120FB0803DC2A38039120FB98060
:1008A80034120FC2802F120FCB802A120FD480254A
:1008B800120BAD8003120B67020D60120F4F020975
:1008C800C3120F5F0208E3120F6F020B20120FDD35
:0B08D8008003120FE6020F3FB2012266
:030003000205E40F
:1005E400C0E0C0F0C083C082C0D075D000C000C0DD
:0D05F40001C002C003C004C005C006C0075E
:10060100120E58C3EF9499EE941E500302069DD327
:10061100EF9433EE9422400302069D120E36C3EF8F
:100621009466EE940E4075D3EF9400EE9412506CE4
:10063100E4FBE4FA120E58C3EF9439EE9401405CE6
:10064100D3EF94CEEE94025053120E36D3EF943979
:10065100EE94014010EF94CEEE94025008E529C3C8
:1006610013F529801AD3EF9441EE9405402EEF94AF
:10067100D7EE94065026E529C313F5294329800AAC
:10068100BA08B174082BF8A6290BBB04A5D2001235
:0C0691000868120BF3EF60FAD2A3D281CC
:10069D00D007D006D005D004D003D002D001D000B1
:0B06AD00D0D0D082D083D0F0D0E0325B
:100E9600120F8DD2BB120F9A120F7F7F807E251202
:0C0EA6000DBE120A20D2AF1209C380FB5F
:100C7C00ED146018047039EF1F8E8370011E4583CC
:100C8C00602E7964AD0119ED60ED80F8EF1F8E8355
:100C9C0070011E458360197A277B10EB1B8A8370C9
:100CAC00011A458360E67C64AD041CED60ED80F8B0
:010CBC002215
:100D2E00E50A24F4602224F0601324E960141460B0
:100D3E001424F2601924E46012244D7014D2A3021C
:100D4E000FA7020006020E7A0209C30208E3120B75
:020D5E00202251
:090ED300011104011204011000D8
:0D0F9A0075CDFC75CC18D2ADD2AFD2CA22F5
:03002B00020CF8CC
:100CF800C0E0C0D0C2CF75CDFC75CC180510E5108A
:100D0800B40A07751000D296D295E5107004D295F2
:100D1800D296E51114B51002C295E510B51202C2BB
:060D280096D0D0D0E032AD
:10035B00AED580A83FD300408D142002A1C8DA127D
:10036B0081EFD9F1DB30A4A6AF00E010080810E054
:10037B0000000F102020100F00001010F8000000DC
:10038B00000020203F202000000070080808887023
:10039B0000003028242221300000300888884830A3
:1003AB00000018202020110E000000C02010F800C3
:1003BB000000070424243F240000F808888808085C
:1003CB00000019212020110E0000E0108888180071
:1003DB0000000F112020110E0000380808C8380843
:1003EB00000000003F0000000000708808088870C3
:1003FB0000001C222121221C0000E010080810E044
:10040B00000000312222110F00000000C0C00000CC
:10041B000000000030300000001010D0FF9014E4FA
:10042B00AFA4A4A4AFE4040000040300FF00894BB5
:10043B002A1A0E1A2A4B88800010109090909090D8
:10044B001010FF101011161000002060203F10102C
:10045B001000030C102040F800404042CC0004F484
:10046B009494FF9494F40400000040201F2048440F
:10047B0042415F4142444840000000FC242424FCDC
:10048B00252624FC242424040040308F80844C55E2
:10049B00252525554C80808000003E22E2223E001F
:1004AB00FE2222222222E20200203F201F111100F5
:1004BB007F4444444444474000040404F484D4A5DA
:1004CB00A6A4D484F40404040000FE0202123A161B
:1004DB0013121A3242827E000000002424242424AA
:1004EB00FC2222222322000000020202020242828C
:1004FB007F02020202020202004044C44444444010
:10050B001010FF101010F00000103C131014B84026
:10051B00300E014080403F00000000829292929288
:10052B009292929292FE000000040404040C340494
:10053B000444847F0404040400404042CC0008C8F7
:10054B0008F8090EF8084888000040201F20514881
:10055B00464148504F404041004042CC00807E22F3
:10056B00223E005465C664540040201F22415F495F
:10057B00495F4042425F42420000FE0222DA06100F
:10058B00D2565A535A56D2100000FF0810080710C3
:10059B00171515FD1515171000003E22E2223E001F
:1005AB00FE92929292FE000000203F201F1111003C
:1005BB00FF40230C142241400000FE225A860810F3
:1005CB004424F42C2724E4040000FF040887413F53
:0905DB004080BF8595A59F8000BA
:0B0EF800D2867F01120F03D2877F011A
:070F0300AE071FEE70FA2299
:100EB200C286D287E4F532E53290035B93FF120FCC
:0A0EC2000A0532E532C3941940ED31
:010ECC002203
:100F2E00120EF8C2867F01120F03C2877F78020D60
:010F3E009220
:080FF800C286120EFAD2862215
:100F0A008F39120F2EE4FF120D92AF39120D920291
:020F1A000FF8CE
:100CBD00E535C4F8540FC868FFE534C454F048FE58
:100CCD0074742FF58274033EF583E5822537F58222
:090CDD00E5833536F583E493FF4D
:100CE6008F38120F2E7F40120D92AF38120D9202DE
:020CF6000FF8F5
:100EE3008F38E538C4540F4410FF120F0AE5385405
:050EF3000FFF020F0AD1
:07100000EF24B0FF020F0A0C
:100DE600E4F532AF32121000E4FF120EE3E4F533FD
:100DF600E4FF120CE60533E533C3948040F2053276
:070E0600E532C3940840DC53
:010E0D0022C2
:100E0E00E4F513AF13121000E4FF120EE3E4F51431
:100E1E007FFF120CE60514E514C3948040F205130F
:070E2E00E513C3940840DC4A
:010E3500229A
:100D9200AD07E4FCC287ED20E704C2868002D2865A
:100DA200ED25E0FD120EFA0CBC08E9C2877F0112A4
:0C0DB2000F03120EF8C2877F01020F032E
:060A7C007B0A7A007D20D8
:080A82008F328D338A348B356D
:100A8A00121000AF33120EE3E4F536F537120CBD3F
:100A9A000537E53770020536C39408E53664809455
:100AAA008040EAE53204FF121000AF33120EE375FC
:100ABA003600753708120CBD0537E5377002053662
:0B0ACA00C39410E5366480948040EA7D
:010AD50022FE
:0606B8007D307A00E4FF32
:0806BE008F328D338A348B3535
:1006C600121000AF33120EE3E4F536F537E535AE1A
:1006D600347805C333CE33CED8F92424F582740496
:1006E6003EF583E5822537F582E5833536120CE142
:1006F6000537E53770020536C39410E536648094F5
:100706008040CAE53204FF121000AF33120EE375C3
:100716003600753710E535AE347805C333CE33CEA3
:10072600D8F92424F58274043EF583E5822537F54D
:1007360082E5833536120CE10537E537700205365A
:0B074600C39420E5366480948040CA14
:010751002285
:100F3F007B061206B87B077A007D40E4FF0206BEEF
:100D6000E51124FC601424FE601424FE601424FEAB
:100D700060142408701B7B01800E7B02800A7B03B9
:100D800080067B0480027B057A007D307F03120A97
:020D90008222BD
:100F4F007B081206B87B097A007D40E4FF0206BEDB
:100F5F007B0A1206B87B0B7A007D40E4FF0206BEC7
:100F6F007B0C1206B87B0D7A007D40E4FF0206BEB3
:1007DE00AE0CAF0D7C277D101201F37C007D0A124A
:1007EE0001F3AA04AB057D307F06120A82AE0CAF70
:1007FE000D7C037DE81201F37C007D0A1201F3AA41
:10080E0004AB057D387F06120A82AE0CAF0D7C005C
:10081E007D641201F37C007D0A1201F3AA04AB057C
:10082E007D407F06120A82AE0CAF0D7C007D0A124F
:10083E0001F37C007D0A1201F3AA04AB057D487F0B
:10084E0006120A82AE0CAF0D7C007D0A1201F3AACD
:0A085E0004AB057D507F06020A82FC
:100A2000120EB2120DE6E4FBFAFDFF1206BE7B01C8
:100A30007D101206BA7B0A7A007D20E4FF120A823A
:100A40007B027A00E4FD7F031206BE7B037A007D01
:100A5000107F031206BE7F03120A7C7B047A00E437
:100A6000FD7F061206BE7B057A007D107F0612060A
:0C0A7000BE7F06120A7C120F3F020D60D0
:060EDC00020C0000C10140
:100F1C007F01E4F58CF58AD2A1AE071FEE70FAC200
:010F2C00A123
:010F2D0022A1
:1009570020A013E50A645E60F7E50A644260F1E5EA
:100967000A642260EB22D28C30A00FE50A645E6035
:10097700F7E50A644260F1C28C22AF8CEFFEAD8AC4
:100987007C00E42DF50FEC3EF50EC28CFCAD0FE4B8
:100997001201397B487AE1798A783F12002E1201D9
:1009A70072AD07AC06E41201397B7B7A14792E7895
:0C09B7003E12002E1201728E0C8F0D22D9
:090FEF00120F1C1209570207DE63
:10002E00EC4D6011E8497017ED33EC3304600DE4CC
:10003E00FCFFFEFD22E933E8330470F80201DE1204
:10004E0001A958046009E4CC248150062850090205
:10005E0001E82840030201E5C0E0EB4A7044B98094
:10006E0006D0E0FB0201D4EF4E701CBD8008EBFF02
:10007E00EAFEE9FD80EBE98DF0A4FEE5F002011742
:10008E00E9CDF9EAFEEBFFEF89F0A4FCE5F0CE89AD
:10009E00F0A42EFFE435F0CD89F0A42DFEE435F06A
:1000AE008067EF4E7005BD80D780C3EF8BF0A4AC98
:1000BE00F0EE8BF0A42CFCE435F0F8EF8AF0A42CD3
:1000CE00E5F038FCE433CB8DF0A42CFCE5F03BF8E6
:1000DE00EE8AF0A42CFCE5F038F8E433CF89F0A4D6
:1000EE002CFCE5F038CF3400CE89F0A42FFFE5F0DC
:1000FE003EFEE433C98DF0A42EFEE5F039CD8AF034
:10010E00A42FFFE5F03EFEE43DFD33D0E0FB5007AB
:10011E000BBB000F0201E8EC2CFCEF33FFEE33FEBD
:06012E00ED33FD0201C0EB
:1001340075F020800E75F010800575F0087D007E46
:10014400007F003392D530D503120248EC334010BF
:10015400EF33FFEE33FEED33FDEC33FCD5F0ED224F
:0E016400E5F0247EA2D513CC92E7CDCEFF228B
:10017200EDD2E7CD33EC3392D524814006E4FFFE85
:10018200FDFC22FCE4CFCECDCC24E0501174FF80E4
:10019200EDC3CC13CCCD13CDCE13CECF13CF047081
:0701A200F030D5DE02024837
:1001A900E9D2E7C933E833F892D5EDD2E7CD33EC9C
:0701B90033FC5002B2D52215
:1001C000EC30E7100FBF000C0EBE00080DBD0004A0
:1001D0000BEB6014A2D5EB13FCED92E7FD2274FF4C
:1001E000FCFDFEFF22E480F8A2D574FF13FC7D80A5
:0301F000E480EFB9
:03000000020752A2
:0C075200787FE4F6D8FD75813902079924
:1001F300BC000BBE0029EF8DF084FFADF022E4CCF0
:10020300F875F008EF2FFFEE33FEEC33FCEE9DECB8
:10021300984005FCEE9DFE0FD5F0E9E4CEFD22EDFE
:10022300F8F5F0EE8420D21CFEADF075F008EF2F48
:10023300FFED33FD4007985006D5F0F222C398FD39
:050243000FD5F0EA22D6
:100C3800C2D5E830E70FB2D5E4C39BFBE49AFAE4E7
:100C480099F9E498F8EC30E717B2D5120C6E120255
:100C5800C9E4C39BFBE49AFAE499F9E498F88003A1
:100C68001202C930D50DE4C39FFFE49EFEE49DFD4A
:040C7800E49CFC22DA
:0E024800C3E49FFFE49EFEE49DFDE49CFC22C7
:10025600EB9FF5F0EA9E42F0E99D42F0E89C45F0FE
:010266002275
:10026700D083D082F8E4937012740193700DA3A326
:1002770093F8740193F5828883E47374029368603A
:06028700EFA3A3A380DF3A
:10075E00020E96E493A3F8E493A34003F68001F20D
:10076E0008DFF48029E493A3F85407240CC8C3339C
:10077E00C4540F4420C8834004F456800146F6DF6B
:10078E00E4800B0102040810204080900ECDE47E20
:10079E00019360BCA3FF543F30E509541FFEE49360
:1007AE00A360010ECF54C025E060A840B8E493A327
:1007BE00FAE493A3F8E493A3C8C582C8CAC583CA52
:1007CE00F0A3C8C582C8CAC583CADFE9DEE780BE0A
:010EE200000F
:10028D0075F008758200EF2FFFEE33FECD33CDCC28
:10029D0033CCC58233C5829BED9AEC99E5829840AB
:1002AD000CF582EE9BFEED9AFDEC99FC0FD5F0D688
:1002BD00E4CEFBE4CDFAE4CCF9A88222B800C1B9B2
:1002CD000059BA002DEC8BF084CFCECDFCE5F0CBF0
:1002DD00F97818EF2FFFEE33FEED33FDEC33FCEB29
:1002ED0033FB10D703994004EB99FB0FD8E5E4F9E4
:1002FD00FA227818EF2FFFEE33FEED33FDEC33FCD1
:10030D00C933C910D7059BE99A4007EC9BFCE99AC4
:10031D00F90FD8E0E4C9FAE4CCFB2275F010EF2F09
:10032D00FFEE33FEED33FDCC33CCC833C810D70709
:10033D009BEC9AE899400AED9BFDEC9AFCE899F844
:0E034D000FD5F0DAE4CDFBE4CCFAE4C8F922D7
:00000001FF
